{
  "_format": "hh-sol-artifact-1",
  "contractName": "SimpleNFT",
  "sourceName": "contracts/SimpleNFT.sol",
  "abi": [
    {
      "inputs": [],
      "stateMutability": "nonpayable",
      "type": "constructor"
    },
    {
      "inputs": [
        {
          "internalType": "address",
          "name": "sender",
          "type": "address"
        },
        {
          "internalType": "uint256",
          "name": "tokenId",
          "type": "uint256"
        },
        {
          "internalType": "address",
          "name": "owner",
          "type": "address"
        }
      ],
      "name": "ERC721IncorrectOwner",
      "type": "error"
    },
    {
      "inputs": [
        {
          "internalType": "address",
          "name": "operator",
          "type": "address"
        },
        {
          "internalType": "uint256",
          "name": "tokenId",
          "type": "uint256"
        }
      ],
      "name": "ERC721InsufficientApproval",
      "type": "error"
    },
    {
      "inputs": [
        {
          "internalType": "address",
          "name": "approver",
          "type": "address"
        }
      ],
      "name": "ERC721InvalidApprover",
      "type": "error"
    },
    {
      "inputs": [
        {
          "internalType": "address",
          "name": "operator",
          "type": "address"
        }
      ],
      "name": "ERC721InvalidOperator",
      "type": "error"
    },
    {
      "inputs": [
        {
          "internalType": "address",
          "name": "owner",
          "type": "address"
        }
      ],
      "name": "ERC721InvalidOwner",
      "type": "error"
    },
    {
      "inputs": [
        {
          "internalType": "address",
          "name": "receiver",
          "type": "address"
        }
      ],
      "name": "ERC721InvalidReceiver",
      "type": "error"
    },
    {
      "inputs": [
        {
          "internalType": "address",
          "name": "sender",
          "type": "address"
        }
      ],
      "name": "ERC721InvalidSender",
      "type": "error"
    },
    {
      "inputs": [
        {
          "internalType": "uint256",
          "name": "tokenId",
          "type": "uint256"
        }
      ],
      "name": "ERC721NonexistentToken",
      "type": "error"
    },
    {
      "inputs": [
        {
          "internalType": "address",
          "name": "owner",
          "type": "address"
        }
      ],
      "name": "OwnableInvalidOwner",
      "type": "error"
    },
    {
      "inputs": [
        {
          "internalType": "address",
          "name": "account",
          "type": "address"
        }
      ],
      "name": "OwnableUnauthorizedAccount",
      "type": "error"
    },
    {
      "anonymous": false,
      "inputs": [
        {
          "indexed": true,
          "internalType": "address",
          "name": "owner",
          "type": "address"
        },
        {
          "indexed": true,
          "internalType": "address",
          "name": "approved",
          "type": "address"
        },
        {
          "indexed": true,
          "internalType": "uint256",
          "name": "tokenId",
          "type": "uint256"
        }
      ],
      "name": "Approval",
      "type": "event"
    },
    {
      "anonymous": false,
      "inputs": [
        {
          "indexed": true,
          "internalType": "address",
          "name": "owner",
          "type": "address"
        },
        {
          "indexed": true,
          "internalType": "address",
          "name": "operator",
          "type": "address"
        },
        {
          "indexed": false,
          "internalType": "bool",
          "name": "approved",
          "type": "bool"
        }
      ],
      "name": "ApprovalForAll",
      "type": "event"
    },
    {
      "anonymous": false,
      "inputs": [
        {
          "indexed": false,
          "internalType": "uint256",
          "name": "_fromTokenId",
          "type": "uint256"
        },
        {
          "indexed": false,
          "internalType": "uint256",
          "name": "_toTokenId",
          "type": "uint256"
        }
      ],
      "name": "BatchMetadataUpdate",
      "type": "event"
    },
    {
      "anonymous": false,
      "inputs": [
        {
          "indexed": false,
          "internalType": "uint256",
          "name": "_tokenId",
          "type": "uint256"
        }
      ],
      "name": "MetadataUpdate",
      "type": "event"
    },
    {
      "anonymous": false,
      "inputs": [
        {
          "indexed": true,
          "internalType": "address",
          "name": "previousOwner",
          "type": "address"
        },
        {
          "indexed": true,
          "internalType": "address",
          "name": "newOwner",
          "type": "address"
        }
      ],
      "name": "OwnershipTransferred",
      "type": "event"
    },
    {
      "anonymous": false,
      "inputs": [
        {
          "indexed": true,
          "internalType": "address",
          "name": "from",
          "type": "address"
        },
        {
          "indexed": true,
          "internalType": "address",
          "name": "to",
          "type": "address"
        },
        {
          "indexed": true,
          "internalType": "uint256",
          "name": "tokenId",
          "type": "uint256"
        }
      ],
      "name": "Transfer",
      "type": "event"
    },
    {
      "inputs": [
        {
          "internalType": "address",
          "name": "to",
          "type": "address"
        },
        {
          "internalType": "uint256",
          "name": "tokenId",
          "type": "uint256"
        }
      ],
      "name": "approve",
      "outputs": [],
      "stateMutability": "nonpayable",
      "type": "function"
    },
    {
      "inputs": [
        {
          "internalType": "address",
          "name": "owner",
          "type": "address"
        }
      ],
      "name": "balanceOf",
      "outputs": [
        {
          "internalType": "uint256",
          "name": "",
          "type": "uint256"
        }
      ],
      "stateMutability": "view",
      "type": "function"
    },
    {
      "inputs": [
        {
          "internalType": "uint256",
          "name": "tokenId",
          "type": "uint256"
        }
      ],
      "name": "getApproved",
      "outputs": [
        {
          "internalType": "address",
          "name": "",
          "type": "address"
        }
      ],
      "stateMutability": "view",
      "type": "function"
    },
    {
      "inputs": [
        {
          "internalType": "address",
          "name": "owner",
          "type": "address"
        },
        {
          "internalType": "address",
          "name": "operator",
          "type": "address"
        }
      ],
      "name": "isApprovedForAll",
      "outputs": [
        {
          "internalType": "bool",
          "name": "",
          "type": "bool"
        }
      ],
      "stateMutability": "view",
      "type": "function"
    },
    {
      "inputs": [
        {
          "internalType": "string",
          "name": "_tokenURI",
          "type": "string"
        }
      ],
      "name": "mintNFT",
      "outputs": [
        {
          "internalType": "uint256",
          "name": "",
          "type": "uint256"
        }
      ],
      "stateMutability": "payable",
      "type": "function"
    },
    {
      "inputs": [],
      "name": "name",
      "outputs": [
        {
          "internalType": "string",
          "name": "",
          "type": "string"
        }
      ],
      "stateMutability": "view",
      "type": "function"
    },
    {
      "inputs": [],
      "name": "owner",
      "outputs": [
        {
          "internalType": "address",
          "name": "",
          "type": "address"
        }
      ],
      "stateMutability": "view",
      "type": "function"
    },
    {
      "inputs": [
        {
          "internalType": "uint256",
          "name": "tokenId",
          "type": "uint256"
        }
      ],
      "name": "ownerOf",
      "outputs": [
        {
          "internalType": "address",
          "name": "",
          "type": "address"
        }
      ],
      "stateMutability": "view",
      "type": "function"
    },
    {
      "inputs": [],
      "name": "renounceOwnership",
      "outputs": [],
      "stateMutability": "nonpayable",
      "type": "function"
    },
    {
      "inputs": [
        {
          "internalType": "address",
          "name": "from",
          "type": "address"
        },
        {
          "internalType": "address",
          "name": "to",
          "type": "address"
        },
        {
          "internalType": "uint256",
          "name": "tokenId",
          "type": "uint256"
        }
      ],
      "name": "safeTransferFrom",
      "outputs": [],
      "stateMutability": "nonpayable",
      "type": "function"
    },
    {
      "inputs": [
        {
          "internalType": "address",
          "name": "from",
          "type": "address"
        },
        {
          "internalType": "address",
          "name": "to",
          "type": "address"
        },
        {
          "internalType": "uint256",
          "name": "tokenId",
          "type": "uint256"
        },
        {
          "internalType": "bytes",
          "name": "data",
          "type": "bytes"
        }
      ],
      "name": "safeTransferFrom",
      "outputs": [],
      "stateMutability": "nonpayable",
      "type": "function"
    },
    {
      "inputs": [
        {
          "internalType": "address",
          "name": "operator",
          "type": "address"
        },
        {
          "internalType": "bool",
          "name": "approved",
          "type": "bool"
        }
      ],
      "name": "setApprovalForAll",
      "outputs": [],
      "stateMutability": "nonpayable",
      "type": "function"
    },
    {
      "inputs": [
        {
          "internalType": "bytes4",
          "name": "interfaceId",
          "type": "bytes4"
        }
      ],
      "name": "supportsInterface",
      "outputs": [
        {
          "internalType": "bool",
          "name": "",
          "type": "bool"
        }
      ],
      "stateMutability": "view",
      "type": "function"
    },
    {
      "inputs": [],
      "name": "symbol",
      "outputs": [
        {
          "internalType": "string",
          "name": "",
          "type": "string"
        }
      ],
      "stateMutability": "view",
      "type": "function"
    },
    {
      "inputs": [
        {
          "internalType": "uint256",
          "name": "tokenId",
          "type": "uint256"
        }
      ],
      "name": "tokenURI",
      "outputs": [
        {
          "internalType": "string",
          "name": "",
          "type": "string"
        }
      ],
      "stateMutability": "view",
      "type": "function"
    },
    {
      "inputs": [
        {
          "internalType": "address",
          "name": "from",
          "type": "address"
        },
        {
          "internalType": "address",
          "name": "to",
          "type": "address"
        },
        {
          "internalType": "uint256",
          "name": "tokenId",
          "type": "uint256"
        }
      ],
      "name": "transferFrom",
      "outputs": [],
      "stateMutability": "nonpayable",
      "type": "function"
    },
    {
      "inputs": [
        {
          "internalType": "address",
          "name": "newOwner",
          "type": "address"
        }
      ],
      "name": "transferOwnership",
      "outputs": [],
      "stateMutability": "nonpayable",
      "type": "function"
    },
    {
      "inputs": [],
      "name": "withdraw",
      "outputs": [],
      "stateMutability": "nonpayable",
      "type": "function"
    }
  ],
  "bytecode": "0x608060405234801561001057600080fd5b50336040518060400160405280600981526020017f53696d706c654e465400000000000000000000000000000000000000000000008152506040518060400160405280600481526020017f534e465400000000000000000000000000000000000000000000000000000000815250816000908161008d919061043d565b50806001908161009d919061043d565b505050600073ffffffffffffffffffffffffffffffffffffffff168173ffffffffffffffffffffffffffffffffffffffff16036101125760006040517f1e4fbdf70000000000000000000000000000000000000000000000000000000081526004016101099190610550565b60405180910390fd5b6101218161012760201b60201c565b5061056b565b6000600760009054906101000a900473ffffffffffffffffffffffffffffffffffffffff16905081600760006101000a81548173ffffffffffffffffffffffffffffffffffffffff021916908373ffffffffffffffffffffffffffffffffffffffff1602179055508173ffffffffffffffffffffffffffffffffffffffff168173ffffffffffffffffffffffffffffffffffffffff167f8be0079c531659141344cd1fd0a4f28419497f9722a3daafe3b4186f6b6457e060405160405180910390a35050565b600081519050919050565b7f4e487b7100000000000000000000000000000000000000000000000000000000600052604160045260246000fd5b7f4e487b7100000000000000000000000000000000000000000000000000000000600052602260045260246000fd5b6000600282049050600182168061026e57607f821691505b60208210810361028157610280610227565b5b50919050565b60008190508160005260206000209050919050565b60006020601f8301049050919050565b600082821b905092915050565b6000600883026102e97fffffffffffffffffffffffffffffffffffffffffffffffffffffffffffffffff826102ac565b6102f386836102ac565b95508019841693508086168417925050509392505050565b6000819050919050565b6000819050919050565b600061033a6103356103308461030b565b610315565b61030b565b9050919050565b6000819050919050565b6103548361031f565b61036861036082610341565b8484546102b9565b825550505050565b600090565b61037d610370565b61038881848461034b565b505050565b5b818110156103ac576103a1600082610375565b60018101905061038e565b5050565b601f8211156103f1576103c281610287565b6103cb8461029c565b810160208510156103da578190505b6103ee6103e68561029c565b83018261038d565b50505b505050565b600082821c905092915050565b6000610414600019846008026103f6565b1980831691505092915050565b600061042d8383610403565b9150826002028217905092915050565b610446826101ed565b67ffffffffffffffff81111561045f5761045e6101f8565b5b6104698254610256565b6104748282856103b0565b600060209050601f8311600181146104a75760008415610495578287015190505b61049f8582610421565b865550610507565b601f1984166104b586610287565b60005b828110156104dd578489015182556001820191506020850194506020810190506104b8565b868310156104fa57848901516104f6601f891682610403565b8355505b6001600288020188555050505b505050505050565b600073ffffffffffffffffffffffffffffffffffffffff82169050919050565b600061053a8261050f565b9050919050565b61054a8161052f565b82525050565b60006020820190506105656000830184610541565b92915050565b6127688061057a6000396000f3fe6080604052600436106101095760003560e01c8063715018a611610095578063b88d4fde11610064578063b88d4fde14610355578063c87b56dd1461037e578063e985e9c5146103bb578063f2fde38b146103f8578063fb37e8831461042157610109565b8063715018a6146102bf5780638da5cb5b146102d657806395d89b4114610301578063a22cb4651461032c57610109565b806323b872dd116100dc57806323b872dd146101dc5780633ccfd60b1461020557806342842e0e1461021c5780636352211e1461024557806370a082311461028257610109565b806301ffc9a71461010e57806306fdde031461014b578063081812fc14610176578063095ea7b3146101b3575b600080fd5b34801561011a57600080fd5b5061013560048036038101906101309190611bd3565b610451565b6040516101429190611c1b565b60405180910390f35b34801561015757600080fd5b506101606104b2565b60405161016d9190611cc6565b60405180910390f35b34801561018257600080fd5b5061019d60048036038101906101989190611d1e565b610544565b6040516101aa9190611d8c565b60405180910390f35b3480156101bf57600080fd5b506101da60048036038101906101d59190611dd3565b610560565b005b3480156101e857600080fd5b5061020360048036038101906101fe9190611e13565b610576565b005b34801561021157600080fd5b5061021a610678565b005b34801561022857600080fd5b50610243600480360381019061023e9190611e13565b6106d6565b005b34801561025157600080fd5b5061026c60048036038101906102679190611d1e565b6106f6565b6040516102799190611d8c565b60405180910390f35b34801561028e57600080fd5b506102a960048036038101906102a49190611e66565b610708565b6040516102b69190611ea2565b60405180910390f35b3480156102cb57600080fd5b506102d46107c2565b005b3480156102e257600080fd5b506102eb6107d6565b6040516102f89190611d8c565b60405180910390f35b34801561030d57600080fd5b50610316610800565b6040516103239190611cc6565b60405180910390f35b34801561033857600080fd5b50610353600480360381019061034e9190611ee9565b610892565b005b34801561036157600080fd5b5061037c6004803603810190610377919061205e565b6108a8565b005b34801561038a57600080fd5b506103a560048036038101906103a09190611d1e565b6108cd565b6040516103b29190611cc6565b60405180910390f35b3480156103c757600080fd5b506103e260048036038101906103dd91906120e1565b6109e0565b6040516103ef9190611c1b565b60405180910390f35b34801561040457600080fd5b5061041f600480360381019061041a9190611e66565b610a74565b005b61043b600480360381019061043691906121c2565b610afa565b6040516104489190611ea2565b60405180910390f35b6000634906490660e01b7bffffffffffffffffffffffffffffffffffffffffffffffffffffffff1916827bffffffffffffffffffffffffffffffffffffffffffffffffffffffff191614806104ab57506104aa82610b38565b5b9050919050565b6060600080546104c19061223a565b80601f01602080910402602001604051908101604052809291908181526020018280546104ed9061223a565b801561053a5780601f1061050f5761010080835404028352916020019161053a565b820191906000526020600020905b81548152906001019060200180831161051d57829003601f168201915b5050505050905090565b600061054f82610c1a565b5061055982610ca2565b9050919050565b610572828261056d610cdf565b610ce7565b5050565b600073ffffffffffffffffffffffffffffffffffffffff168273ffffffffffffffffffffffffffffffffffffffff16036105e85760006040517f64a0ae920000000000000000000000000000000000000000000000000000000081526004016105df9190611d8c565b60405180910390fd5b60006105fc83836105f7610cdf565b610cf9565b90508373ffffffffffffffffffffffffffffffffffffffff168173ffffffffffffffffffffffffffffffffffffffff1614610672578382826040517f64283d7b0000000000000000000000000000000000000000000000000000000081526004016106699392919061226b565b60405180910390fd5b50505050565b610680610f13565b600047905061068d6107d6565b73ffffffffffffffffffffffffffffffffffffffff166108fc829081150290604051600060405180830381858888f193505050501580156106d2573d6000803e3d6000fd5b5050565b6106f1838383604051806020016040528060008152506108a8565b505050565b600061070182610c1a565b9050919050565b60008073ffffffffffffffffffffffffffffffffffffffff168273ffffffffffffffffffffffffffffffffffffffff160361077b5760006040517f89c62b640000000000000000000000000000000000000000000000000000000081526004016107729190611d8c565b60405180910390fd5b600360008373ffffffffffffffffffffffffffffffffffffffff1673ffffffffffffffffffffffffffffffffffffffff168152602001908152602001600020549050919050565b6107ca610f13565b6107d46000610f9a565b565b6000600760009054906101000a900473ffffffffffffffffffffffffffffffffffffffff16905090565b60606001805461080f9061223a565b80601f016020809104026020016040519081016040528092919081815260200182805461083b9061223a565b80156108885780601f1061085d57610100808354040283529160200191610888565b820191906000526020600020905b81548152906001019060200180831161086b57829003601f168201915b5050505050905090565b6108a461089d610cdf565b8383611060565b5050565b6108b3848484610576565b6108c76108be610cdf565b858585856111cf565b50505050565b60606108d882610c1a565b5060006006600084815260200190815260200160002080546108f99061223a565b80601f01602080910402602001604051908101604052809291908181526020018280546109259061223a565b80156109725780601f1061094757610100808354040283529160200191610972565b820191906000526020600020905b81548152906001019060200180831161095557829003601f168201915b505050505090506000610983611380565b905060008151036109985781925050506109db565b6000825111156109cd5780826040516020016109b59291906122de565b604051602081830303815290604052925050506109db565b6109d684611397565b925050505b919050565b6000600560008473ffffffffffffffffffffffffffffffffffffffff1673ffffffffffffffffffffffffffffffffffffffff16815260200190815260200160002060008373ffffffffffffffffffffffffffffffffffffffff1673ffffffffffffffffffffffffffffffffffffffff16815260200190815260200160002060009054906101000a900460ff16905092915050565b610a7c610f13565b600073ffffffffffffffffffffffffffffffffffffffff168173ffffffffffffffffffffffffffffffffffffffff1603610aee5760006040517f1e4fbdf7000000000000000000000000000000000000000000000000000000008152600401610ae59190611d8c565b60405180910390fd5b610af781610f9a565b50565b600060086000815480929190610b0f90612331565b919050555060006008549050610b253382611400565b610b2f81846114f9565b80915050919050565b60007f80ac58cd000000000000000000000000000000000000000000000000000000007bffffffffffffffffffffffffffffffffffffffffffffffffffffffff1916827bffffffffffffffffffffffffffffffffffffffffffffffffffffffff19161480610c0357507f5b5e139f000000000000000000000000000000000000000000000000000000007bffffffffffffffffffffffffffffffffffffffffffffffffffffffff1916827bffffffffffffffffffffffffffffffffffffffffffffffffffffffff1916145b80610c135750610c1282611555565b5b9050919050565b600080610c26836115bf565b9050600073ffffffffffffffffffffffffffffffffffffffff168173ffffffffffffffffffffffffffffffffffffffff1603610c9957826040517f7e273289000000000000000000000000000000000000000000000000000000008152600401610c909190611ea2565b60405180910390fd5b80915050919050565b60006004600083815260200190815260200160002060009054906101000a900473ffffffffffffffffffffffffffffffffffffffff169050919050565b600033905090565b610cf483838360016115fc565b505050565b600080610d05846115bf565b9050600073ffffffffffffffffffffffffffffffffffffffff168373ffffffffffffffffffffffffffffffffffffffff1614610d4757610d468184866117c1565b5b600073ffffffffffffffffffffffffffffffffffffffff168173ffffffffffffffffffffffffffffffffffffffff1614610dd857610d896000856000806115fc565b6001600360008373ffffffffffffffffffffffffffffffffffffffff1673ffffffffffffffffffffffffffffffffffffffff168152602001908152602001600020600082825403925050819055505b600073ffffffffffffffffffffffffffffffffffffffff168573ffffffffffffffffffffffffffffffffffffffff1614610e5b576001600360008773ffffffffffffffffffffffffffffffffffffffff1673ffffffffffffffffffffffffffffffffffffffff168152602001908152602001600020600082825401925050819055505b846002600086815260200190815260200160002060006101000a81548173ffffffffffffffffffffffffffffffffffffffff021916908373ffffffffffffffffffffffffffffffffffffffff160217905550838573ffffffffffffffffffffffffffffffffffffffff168273ffffffffffffffffffffffffffffffffffffffff167fddf252ad1be2c89b69c2b068fc378daa952ba7f163c4a11628f55a4df523b3ef60405160405180910390a4809150509392505050565b610f1b610cdf565b73ffffffffffffffffffffffffffffffffffffffff16610f396107d6565b73ffffffffffffffffffffffffffffffffffffffff1614610f9857610f5c610cdf565b6040517f118cdaa7000000000000000000000000000000000000000000000000000000008152600401610f8f9190611d8c565b60405180910390fd5b565b6000600760009054906101000a900473ffffffffffffffffffffffffffffffffffffffff16905081600760006101000a81548173ffffffffffffffffffffffffffffffffffffffff021916908373ffffffffffffffffffffffffffffffffffffffff1602179055508173ffffffffffffffffffffffffffffffffffffffff168173ffffffffffffffffffffffffffffffffffffffff167f8be0079c531659141344cd1fd0a4f28419497f9722a3daafe3b4186f6b6457e060405160405180910390a35050565b600073ffffffffffffffffffffffffffffffffffffffff168273ffffffffffffffffffffffffffffffffffffffff16036110d157816040517f5b08ba180000000000000000000000000000000000000000000000000000000081526004016110c89190611d8c565b60405180910390fd5b80600560008573ffffffffffffffffffffffffffffffffffffffff1673ffffffffffffffffffffffffffffffffffffffff16815260200190815260200160002060008473ffffffffffffffffffffffffffffffffffffffff1673ffffffffffffffffffffffffffffffffffffffff16815260200190815260200160002060006101000a81548160ff0219169083151502179055508173ffffffffffffffffffffffffffffffffffffffff168373ffffffffffffffffffffffffffffffffffffffff167f17307eab39ab6107e8899845ad3d59bd9653f200f220920489ca2b5937696c31836040516111c29190611c1b565b60405180910390a3505050565b60008373ffffffffffffffffffffffffffffffffffffffff163b1115611379578273ffffffffffffffffffffffffffffffffffffffff1663150b7a02868685856040518563ffffffff1660e01b815260040161122e94939291906123ce565b6020604051808303816000875af192505050801561126a57506040513d601f19601f82011682018060405250810190611267919061242f565b60015b6112ee573d806000811461129a576040519150601f19603f3d011682016040523d82523d6000602084013e61129f565b606091505b5060008151036112e657836040517f64a0ae920000000000000000000000000000000000000000000000000000000081526004016112dd9190611d8c565b60405180910390fd5b805181602001fd5b63150b7a0260e01b7bffffffffffffffffffffffffffffffffffffffffffffffffffffffff1916817bffffffffffffffffffffffffffffffffffffffffffffffffffffffff19161461137757836040517f64a0ae9200000000000000000000000000000000000000000000000000000000815260040161136e9190611d8c565b60405180910390fd5b505b5050505050565b606060405180602001604052806000815250905090565b60606113a282610c1a565b5060006113ad611380565b905060008151116113cd57604051806020016040528060008152506113f8565b806113d784611885565b6040516020016113e89291906122de565b6040516020818303038152906040525b915050919050565b600073ffffffffffffffffffffffffffffffffffffffff168273ffffffffffffffffffffffffffffffffffffffff16036114725760006040517f64a0ae920000000000000000000000000000000000000000000000000000000081526004016114699190611d8c565b60405180910390fd5b600061148083836000610cf9565b9050600073ffffffffffffffffffffffffffffffffffffffff168173ffffffffffffffffffffffffffffffffffffffff16146114f45760006040517f73c6ac6e0000000000000000000000000000000000000000000000000000000081526004016114eb9190611d8c565b60405180910390fd5b505050565b806006600084815260200190815260200160002090816115199190612608565b507ff8e1a15aba9398e019f0b49df1a4fde98ee17ae345cb5f6b5e2c27f5033e8ce7826040516115499190611ea2565b60405180910390a15050565b60007f01ffc9a7000000000000000000000000000000000000000000000000000000007bffffffffffffffffffffffffffffffffffffffffffffffffffffffff1916827bffffffffffffffffffffffffffffffffffffffffffffffffffffffff1916149050919050565b60006002600083815260200190815260200160002060009054906101000a900473ffffffffffffffffffffffffffffffffffffffff169050919050565b80806116355750600073ffffffffffffffffffffffffffffffffffffffff168273ffffffffffffffffffffffffffffffffffffffff1614155b1561176957600061164584610c1a565b9050600073ffffffffffffffffffffffffffffffffffffffff168373ffffffffffffffffffffffffffffffffffffffff16141580156116b057508273ffffffffffffffffffffffffffffffffffffffff168173ffffffffffffffffffffffffffffffffffffffff1614155b80156116c357506116c181846109e0565b155b1561170557826040517fa9fbf51f0000000000000000000000000000000000000000000000000000000081526004016116fc9190611d8c565b60405180910390fd5b811561176757838573ffffffffffffffffffffffffffffffffffffffff168273ffffffffffffffffffffffffffffffffffffffff167f8c5be1e5ebec7d5bd14f71427d1e84f3dd0314c0f7b2291e5b200ac8c7c3b92560405160405180910390a45b505b836004600085815260200190815260200160002060006101000a81548173ffffffffffffffffffffffffffffffffffffffff021916908373ffffffffffffffffffffffffffffffffffffffff16021790555050505050565b6117cc838383611953565b61188057600073ffffffffffffffffffffffffffffffffffffffff168373ffffffffffffffffffffffffffffffffffffffff160361184157806040517f7e2732890000000000000000000000000000000000000000000000000000000081526004016118389190611ea2565b60405180910390fd5b81816040517f177e802f0000000000000000000000000000000000000000000000000000000081526004016118779291906126da565b60405180910390fd5b505050565b60606000600161189484611a14565b01905060008167ffffffffffffffff8111156118b3576118b2611f33565b5b6040519080825280601f01601f1916602001820160405280156118e55781602001600182028036833780820191505090505b509050600082602001820190505b600115611948578080600190039150507f3031323334353637383961626364656600000000000000000000000000000000600a86061a8153600a858161193c5761193b612703565b5b049450600085036118f3575b819350505050919050565b60008073ffffffffffffffffffffffffffffffffffffffff168373ffffffffffffffffffffffffffffffffffffffff1614158015611a0b57508273ffffffffffffffffffffffffffffffffffffffff168473ffffffffffffffffffffffffffffffffffffffff1614806119cc57506119cb84846109e0565b5b80611a0a57508273ffffffffffffffffffffffffffffffffffffffff166119f283610ca2565b73ffffffffffffffffffffffffffffffffffffffff16145b5b90509392505050565b600080600090507a184f03e93ff9f4daa797ed6e38ed64bf6a1f0100000000000000008310611a72577a184f03e93ff9f4daa797ed6e38ed64bf6a1f0100000000000000008381611a6857611a67612703565b5b0492506040810190505b6d04ee2d6d415b85acef81000000008310611aaf576d04ee2d6d415b85acef81000000008381611aa557611aa4612703565b5b0492506020810190505b662386f26fc100008310611ade57662386f26fc100008381611ad457611ad3612703565b5b0492506010810190505b6305f5e1008310611b07576305f5e1008381611afd57611afc612703565b5b0492506008810190505b6127108310611b2c576127108381611b2257611b21612703565b5b0492506004810190505b60648310611b4f5760648381611b4557611b44612703565b5b0492506002810190505b600a8310611b5e576001810190505b80915050919050565b6000604051905090565b600080fd5b600080fd5b60007fffffffff0000000000000000000000000000000000000000000000000000000082169050919050565b611bb081611b7b565b8114611bbb57600080fd5b50565b600081359050611bcd81611ba7565b92915050565b600060208284031215611be957611be8611b71565b5b6000611bf784828501611bbe565b91505092915050565b60008115159050919050565b611c1581611c00565b82525050565b6000602082019050611c306000830184611c0c565b92915050565b600081519050919050565b600082825260208201905092915050565b60005b83811015611c70578082015181840152602081019050611c55565b60008484015250505050565b6000601f19601f8301169050919050565b6000611c9882611c36565b611ca28185611c41565b9350611cb2818560208601611c52565b611cbb81611c7c565b840191505092915050565b60006020820190508181036000830152611ce08184611c8d565b905092915050565b6000819050919050565b611cfb81611ce8565b8114611d0657600080fd5b50565b600081359050611d1881611cf2565b92915050565b600060208284031215611d3457611d33611b71565b5b6000611d4284828501611d09565b91505092915050565b600073ffffffffffffffffffffffffffffffffffffffff82169050919050565b6000611d7682611d4b565b9050919050565b611d8681611d6b565b82525050565b6000602082019050611da16000830184611d7d565b92915050565b611db081611d6b565b8114611dbb57600080fd5b50565b600081359050611dcd81611da7565b92915050565b60008060408385031215611dea57611de9611b71565b5b6000611df885828601611dbe565b9250506020611e0985828601611d09565b9150509250929050565b600080600060608486031215611e2c57611e2b611b71565b5b6000611e3a86828701611dbe565b9350506020611e4b86828701611dbe565b9250506040611e5c86828701611d09565b9150509250925092565b600060208284031215611e7c57611e7b611b71565b5b6000611e8a84828501611dbe565b91505092915050565b611e9c81611ce8565b82525050565b6000602082019050611eb76000830184611e93565b92915050565b611ec681611c00565b8114611ed157600080fd5b50565b600081359050611ee381611ebd565b92915050565b60008060408385031215611f0057611eff611b71565b5b6000611f0e85828601611dbe565b9250506020611f1f85828601611ed4565b9150509250929050565b600080fd5b600080fd5b7f4e487b7100000000000000000000000000000000000000000000000000000000600052604160045260246000fd5b611f6b82611c7c565b810181811067ffffffffffffffff82111715611f8a57611f89611f33565b5b80604052505050565b6000611f9d611b67565b9050611fa98282611f62565b919050565b600067ffffffffffffffff821115611fc957611fc8611f33565b5b611fd282611c7c565b9050602081019050919050565b82818337600083830152505050565b6000612001611ffc84611fae565b611f93565b90508281526020810184848401111561201d5761201c611f2e565b5b612028848285611fdf565b509392505050565b600082601f83011261204557612044611f29565b5b8135612055848260208601611fee565b91505092915050565b6000806000806080858703121561207857612077611b71565b5b600061208687828801611dbe565b945050602061209787828801611dbe565b93505060406120a887828801611d09565b925050606085013567ffffffffffffffff8111156120c9576120c8611b76565b5b6120d587828801612030565b91505092959194509250565b600080604083850312156120f8576120f7611b71565b5b600061210685828601611dbe565b925050602061211785828601611dbe565b9150509250929050565b600067ffffffffffffffff82111561213c5761213b611f33565b5b61214582611c7c565b9050602081019050919050565b600061216561216084612121565b611f93565b90508281526020810184848401111561218157612180611f2e565b5b61218c848285611fdf565b509392505050565b600082601f8301126121a9576121a8611f29565b5b81356121b9848260208601612152565b91505092915050565b6000602082840312156121d8576121d7611b71565b5b600082013567ffffffffffffffff8111156121f6576121f5611b76565b5b61220284828501612194565b91505092915050565b7f4e487b7100000000000000000000000000000000000000000000000000000000600052602260045260246000fd5b6000600282049050600182168061225257607f821691505b6020821081036122655761226461220b565b5b50919050565b60006060820190506122806000830186611d7d565b61228d6020830185611e93565b61229a6040830184611d7d565b949350505050565b600081905092915050565b60006122b882611c36565b6122c281856122a2565b93506122d2818560208601611c52565b80840191505092915050565b60006122ea82856122ad565b91506122f682846122ad565b91508190509392505050565b7f4e487b7100000000000000000000000000000000000000000000000000000000600052601160045260246000fd5b600061233c82611ce8565b91507fffffffffffffffffffffffffffffffffffffffffffffffffffffffffffffffff820361236e5761236d612302565b5b600182019050919050565b600081519050919050565b600082825260208201905092915050565b60006123a082612379565b6123aa8185612384565b93506123ba818560208601611c52565b6123c381611c7c565b840191505092915050565b60006080820190506123e36000830187611d7d565b6123f06020830186611d7d565b6123fd6040830185611e93565b818103606083015261240f8184612395565b905095945050505050565b60008151905061242981611ba7565b92915050565b60006020828403121561244557612444611b71565b5b60006124538482850161241a565b91505092915050565b60008190508160005260206000209050919050565b60006020601f8301049050919050565b600082821b905092915050565b6000600883026124be7fffffffffffffffffffffffffffffffffffffffffffffffffffffffffffffffff82612481565b6124c88683612481565b95508019841693508086168417925050509392505050565b6000819050919050565b60006125056125006124fb84611ce8565b6124e0565b611ce8565b9050919050565b6000819050919050565b61251f836124ea565b61253361252b8261250c565b84845461248e565b825550505050565b600090565b61254861253b565b612553818484612516565b505050565b5b818110156125775761256c600082612540565b600181019050612559565b5050565b601f8211156125bc5761258d8161245c565b61259684612471565b810160208510156125a5578190505b6125b96125b185612471565b830182612558565b50505b505050565b600082821c905092915050565b60006125df600019846008026125c1565b1980831691505092915050565b60006125f883836125ce565b9150826002028217905092915050565b61261182611c36565b67ffffffffffffffff81111561262a57612629611f33565b5b612634825461223a565b61263f82828561257b565b600060209050601f8311600181146126725760008415612660578287015190505b61266a85826125ec565b8655506126d2565b601f1984166126808661245c565b60005b828110156126a857848901518255600182019150602085019450602081019050612683565b868310156126c557848901516126c1601f8916826125ce565b8355505b6001600288020188555050505b505050505050565b60006040820190506126ef6000830185611d7d565b6126fc6020830184611e93565b9392505050565b7f4e487b7100000000000000000000000000000000000000000000000000000000600052601260045260246000fdfea26469706673582212207ffb5ffcfca4b7ce4431dfc9a5000c09f0fcd824b6f1ce2a1b81b55264a51a2864736f6c634300081c0033",
  "linkReferences": {},
  "deployedLinkReferences": {}
}